2025-03-13T20:55:27.003555082Z [2025-03-13 20:55:26] [[32minfo[39m] Starting Nest application...
2025-03-13T20:55:27.077220354Z [2025-03-13 20:55:27] [[32minfo[39m] OGr dependencies initialized
2025-03-13T20:55:27.077300563Z [2025-03-13 20:55:27] [[32minfo[39m] dZu dependencies initialized
2025-03-13T20:55:27.077663648Z [2025-03-13 20:55:27] [[32minfo[39m] pXu dependencies initialized
2025-03-13T20:55:27.077968483Z [2025-03-13 20:55:27] [[32minfo[39m] hmu dependencies initialized
2025-03-13T20:55:27.078283484Z [2025-03-13 20:55:27] [[32minfo[39m] c3u dependencies initialized
2025-03-13T20:55:25.614694213Z Server started on port: 4003
2025-03-13T20:55:54.007688640Z Validating execution request
2025-03-13T20:55:55.339980148Z Transaction data received: {
2025-03-13T20:55:55.340102399Z   safe: '0x80De3dfEF1Ef6cbaBEc9063D1B6AFeab2a73f4f8',
2025-03-13T20:55:55.340106440Z   to: '0x48914C788295b5db23aF2b5F0B3BE775C4eA9440',
2025-03-13T20:55:55.340108899Z   value: '0',
2025-03-13T20:55:55.340111440Z   data: '0xe8eda9df000000000000000000000000eb0d8736cc2c47882f112507cc8a3355d37d2413000000000000000000000000000000000000000000000000000000e8d4a51000000000000000000000000000eb0d8736cc2c47882f112507cc8a3355d37d24130000000000000000000000000000000000000000000000000000000000000000',
2025-03-13T20:55:55.340114440Z   operation: 0,
2025-03-13T20:55:55.340117149Z   gasToken: '0x0000000000000000000000000000000000000000',
2025-03-13T20:55:55.340119274Z   safeTxGas: '0',
2025-03-13T20:55:55.340121524Z   baseGas: '0',
2025-03-13T20:55:27.255935258Z [2025-03-13 20:55:27] [[32minfo[39m] Starting Nest application...
2025-03-13T20:55:27.381678198Z [2025-03-13 20:55:27] [[32minfo[39m] OGr dependencies initialized
2025-03-13T20:55:27.381923824Z [2025-03-13 20:55:27] [[32minfo[39m] dZu dependencies initialized
2025-03-13T20:55:27.383356915Z [2025-03-13 20:55:27] [[32minfo[39m] pXu dependencies initialized
2025-03-13T20:55:27.384693921Z [2025-03-13 20:55:27] [[32minfo[39m] hmu dependencies initialized
2025-03-13T20:55:27.386243429Z [2025-03-13 20:55:27] [[32minfo[39m] c3u dependencies initialized
2025-03-13T20:55:27.388039396Z [2025-03-13 20:55:27] [[32minfo[39m] tyu dependencies initialized
2025-03-13T20:55:27.388049646Z [2025-03-13 20:55:27] [[32minfo[39m] lXu dependencies initialized
2025-03-13T20:55:27.388051062Z [2025-03-13 20:55:27] [[32minfo[39m] Emu dependencies initialized
2025-03-13T20:55:27.081089039Z [2025-03-13 20:55:27] [[32minfo[39m] tyu dependencies initialized
2025-03-13T20:55:27.081266457Z [2025-03-13 20:55:27] [[32minfo[39m] lXu dependencies initialized
2025-03-13T20:55:27.082578755Z [2025-03-13 20:55:27] [[32minfo[39m] Emu dependencies initialized
2025-03-13T20:55:27.085350560Z [2025-03-13 20:55:27] [[32minfo[39m] Emu dependencies initialized
2025-03-13T20:55:27.086037480Z [2025-03-13 20:55:27] [[32minfo[39m] C8u dependencies initialized
2025-03-13T20:55:27.089017078Z [2025-03-13 20:55:27] [[32minfo[39m] pwu dependencies initialized
2025-03-13T20:55:27.334624679Z [2025-03-13 20:55:27] [[32minfo[39m] AZu dependencies initialized
2025-03-13T20:55:55.340123482Z   gasPrice: '0',
2025-03-13T20:55:55.340125482Z   refundReceiver: '0x0000000000000000000000000000000000000000',
2025-03-13T20:55:55.340127690Z   nonce: '1',
2025-03-13T20:55:55.340129690Z   executionDate: null,
2025-03-13T20:55:55.340131691Z   submissionDate: '2025-03-13T20:05:01.280960Z',
2025-03-13T20:55:25.653225983Z Server started on port: 4002
2025-03-13T20:55:58.874492651Z Validate task: proof of task: QmPzHdkFc7EUu7YWgX4R8q47PBFz99VeqjYkmMHdLfCb8k
2025-03-13T20:55:58.912405292Z Validate task: proof of task: QmPzHdkFc7EUu7YWgX4R8q47PBFz99VeqjYkmMHdLfCb8k
2025-03-13T20:55:59.310125835Z Validate task: proof of task: QmPzHdkFc7EUu7YWgX4R8q47PBFz99VeqjYkmMHdLfCb8k
2025-03-13T20:56:04.844231727Z Transaction data received: {
2025-03-13T20:55:27.336952649Z [2025-03-13 20:55:27] [[32minfo[39m] pZu dependencies initialized
2025-03-13T20:55:27.337033066Z [2025-03-13 20:55:27] [[32minfo[39m] dXu dependencies initialized
2025-03-13T20:55:27.341575963Z [2025-03-13 20:55:27] [[32minfo[39m] XZu dependencies initialized
2025-03-13T20:55:27.342457634Z [2025-03-13 20:55:27] [[32minfo[39m] $Zu dependencies initialized
2025-03-13T20:56:04.844504478Z   safe: '0x80De3dfEF1Ef6cbaBEc9063D1B6AFeab2a73f4f8',
2025-03-13T20:56:04.844516937Z   to: '0x48914C788295b5db23aF2b5F0B3BE775C4eA9440',
2025-03-13T20:56:04.844522020Z   value: '0',
2025-03-13T20:56:04.844526520Z   data: '0xe8eda9df000000000000000000000000eb0d8736cc2c47882f112507cc8a3355d37d2413000000000000000000000000000000000000000000000000000000e8d4a51000000000000000000000000000eb0d8736cc2c47882f112507cc8a3355d37d24130000000000000000000000000000000000000000000000000000000000000000',
2025-03-13T20:56:04.844531437Z   operation: 0,
2025-03-13T20:55:27.388055229Z [2025-03-13 20:55:27] [[32minfo[39m] Emu dependencies initialized
2025-03-13T20:55:27.436935673Z [2025-03-13 20:55:27] [[32minfo[39m] Starting Nest application...
2025-03-13T20:55:27.475895444Z [2025-03-13 20:55:27] [[32minfo[39m] OGr dependencies initialized
2025-03-13T20:55:27.475927028Z [2025-03-13 20:55:27] [[32minfo[39m] dZu dependencies initialized
2025-03-13T20:55:27.476409822Z [2025-03-13 20:55:27] [[32minfo[39m] pXu dependencies initialized
2025-03-13T20:56:04.844535020Z   gasToken: '0x0000000000000000000000000000000000000000',
2025-03-13T20:56:04.844538978Z   safeTxGas: '0',
2025-03-13T20:56:04.844542603Z   baseGas: '0',
2025-03-13T20:56:04.844546145Z   gasPrice: '0',
2025-03-13T20:56:04.844549603Z   refundReceiver: '0x0000000000000000000000000000000000000000',
2025-03-13T20:55:27.342537093Z [2025-03-13 20:55:27] [[32minfo[39m] oXu dependencies initialized
2025-03-13T20:55:27.349692710Z [2025-03-13 20:55:27] [[32minfo[39m] WZu dependencies initialized
2025-03-13T20:55:27.454373674Z [2025-03-13 20:55:27] [[32minfo[39m] fZu dependencies initialized
2025-03-13T20:55:31.209228750Z [2025-03-13 20:55:31] [[32minfo[39m] L1 RPC: https://ethereum-holesky-rpc.publicnode.com
2025-03-13T20:55:27.063737914Z [2025-03-13 20:55:27] [[32minfo[39m] Starting Nest application...
2025-03-13T20:55:27.127880098Z [2025-03-13 20:55:27] [[32minfo[39m] OGr dependencies initialized
2025-03-13T20:55:27.127919265Z [2025-03-13 20:55:27] [[32minfo[39m] dZu dependencies initialized
2025-03-13T20:55:27.476643865Z [2025-03-13 20:55:27] [[32minfo[39m] hmu dependencies initialized
2025-03-13T20:55:27.476933658Z [2025-03-13 20:55:27] [[32minfo[39m] c3u dependencies initialized
2025-03-13T20:55:27.477009283Z [2025-03-13 20:55:27] [[32minfo[39m] tyu dependencies initialized
2025-03-13T20:55:27.477189076Z [2025-03-13 20:55:27] [[32minfo[39m] lXu dependencies initialized
2025-03-13T20:55:27.479952714Z [2025-03-13 20:55:27] [[32minfo[39m] Emu dependencies initialized
2025-03-13T20:55:27.479971589Z [2025-03-13 20:55:27] [[32minfo[39m] Emu dependencies initialized
2025-03-13T20:55:27.479973964Z [2025-03-13 20:55:27] [[32minfo[39m] C8u dependencies initialized
2025-03-13T20:55:27.479975047Z [2025-03-13 20:55:27] [[32minfo[39m] pwu dependencies initialized
2025-03-13T20:55:27.390557491Z [2025-03-13 20:55:27] [[32minfo[39m] C8u dependencies initialized
2025-03-13T20:55:27.390602116Z [2025-03-13 20:55:27] [[32minfo[39m] pwu dependencies initialized
2025-03-13T20:55:27.445453589Z [2025-03-13 20:55:27] [[32minfo[39m] AZu dependencies initialized
2025-03-13T20:55:27.528850700Z [2025-03-13 20:55:27] [[32minfo[39m] AZu dependencies initialized
2025-03-13T20:55:27.528874533Z [2025-03-13 20:55:27] [[32minfo[39m] pZu dependencies initialized
2025-03-13T20:55:27.529594579Z [2025-03-13 20:55:27] [[32minfo[39m] dXu dependencies initialized
2025-03-13T20:55:27.530596417Z [2025-03-13 20:55:27] [[32minfo[39m] XZu dependencies initialized
2025-03-13T20:55:31.209486084Z [2025-03-13 20:55:31] [[32minfo[39m] L2 RPC: https://base-sepolia.g.alchemy.com/v2/WftnH0ccVAMVJkjJl_qeQQvi43k06IL4
2025-03-13T20:55:31.446117935Z [2025-03-13 20:55:31] [[31merror[39m] Unknown error occurred on chain: 17000
2025-03-13T20:55:31.446468311Z [2025-03-13 20:55:31] [[31merror[39m] missing revert data (action="call", data=null, reason=null, transaction={ "data": "0xcab1a5ef", "from": "0xeb0d8736Cc2c47882f112507cc8A3355d37D2413", "to": "0x9d6817faa5b4C95f7F79dd7454d856e3eb4B3101" }, invocation=null, revert=null, code=CALL_EXCEPTION, version=6.8.1)
2025-03-13T20:55:31.920912934Z [2025-03-13 20:55:31] [[32minfo[39m] Starting p2p process with agent version othentic-cli/1.9.1 js-libp2p/2.5.0
2025-03-13T20:56:04.844553853Z   nonce: '1',
2025-03-13T20:56:04.844557270Z   executionDate: null,
2025-03-13T20:56:04.844560728Z   submissionDate: '2025-03-13T20:05:01.280960Z',
2025-03-13T20:56:04.844564478Z   modified: '2025-03-13T20:05:01.425456Z',
2025-03-13T20:55:27.445927675Z [2025-03-13 20:55:27] [[32minfo[39m] pZu dependencies initialized
2025-03-13T20:55:27.446706429Z [2025-03-13 20:55:27] [[32minfo[39m] dXu dependencies initialized
2025-03-13T20:55:27.531869006Z [2025-03-13 20:55:27] [[32minfo[39m] $Zu dependencies initialized
2025-03-13T20:55:27.531885090Z [2025-03-13 20:55:27] [[32minfo[39m] oXu dependencies initialized
2025-03-13T20:55:27.532885136Z [2025-03-13 20:55:27] [[32minfo[39m] WZu dependencies initialized
2025-03-13T20:55:27.583433963Z [2025-03-13 20:55:27] [[32minfo[39m] fZu dependencies initialized
2025-03-13T20:55:31.813093205Z [2025-03-13 20:55:31] [[31merror[39m] Unknown error occurred on chain: 17000
2025-03-13T20:55:31.813126789Z [2025-03-13 20:55:31] [[31merror[39m] missing revert data (action="call", data=null, reason=null, transaction={ "data": "0xcab1a5ef", "from": "0xaBE54D153B59DB5552790E252f26d9708856669f", "to": "0x9d6817faa5b4C95f7F79dd7454d856e3eb4B3101" }, invocation=null, revert=null, code=CALL_EXCEPTION, version=6.8.1)
2025-03-13T20:55:32.365973998Z [2025-03-13 20:55:32] [[32minfo[39m] Starting p2p process with agent version othentic-cli/1.9.1 js-libp2p/2.5.0
2025-03-13T20:55:32.366012665Z [2025-03-13 20:55:32] [[32minfo[39m] Operator address: 0xaBE54D153B59DB5552790E252f26d9708856669f
2025-03-13T20:55:27.127921557Z [2025-03-13 20:55:27] [[32minfo[39m] pXu dependencies initialized
2025-03-13T20:55:27.127922640Z [2025-03-13 20:55:27] [[32minfo[39m] hmu dependencies initialized
2025-03-13T20:55:27.447669850Z [2025-03-13 20:55:27] [[32minfo[39m] XZu dependencies initialized
2025-03-13T20:55:27.448502312Z [2025-03-13 20:55:27] [[32minfo[39m] $Zu dependencies initialized
2025-03-13T20:55:27.448539312Z [2025-03-13 20:55:27] [[32minfo[39m] oXu dependencies initialized
2025-03-13T20:55:27.449655526Z [2025-03-13 20:55:27] [[32minfo[39m] WZu dependencies initialized
2025-03-13T20:55:27.519559363Z [2025-03-13 20:55:27] [[32minfo[39m] fZu dependencies initialized
2025-03-13T20:55:32.138914861Z [2025-03-13 20:55:32] [[31merror[39m] Unknown error occurred on chain: 17000
2025-03-13T20:55:32.366015498Z [2025-03-13 20:55:32] [[32minfo[39m] Operator ID: 3
2025-03-13T20:55:32.366016623Z [2025-03-13 20:55:32] [[32minfo[39m] Authentication layer enabled: false
2025-03-13T20:55:32.370475228Z [2025-03-13 20:55:32] [[32minfo[39m] Running node with peer list
2025-03-13T20:55:55.340135316Z   modified: '2025-03-13T20:05:01.425456Z',
2025-03-13T20:55:55.340137357Z   blockNumber: null,
2025-03-13T20:55:55.340139357Z   transactionHash: null,
2025-03-13T20:55:55.340141441Z   safeTxHash: '0x043dca7b0c9b33ffd7f9c9e80ae31374450a5ef159f49350d45a293b0ea92752',
2025-03-13T20:55:32.139387071Z [2025-03-13 20:55:32] [[31merror[39m] missing revert data (action="call", data=null, reason=null, transaction={ "data": "0xcab1a5ef", "from": "0xeb0d8736Cc2c47882f112507cc8A3355d37D2413", "to": "0x9d6817faa5b4C95f7F79dd7454d856e3eb4B3101" }, invocation=null, revert=null, code=CALL_EXCEPTION, version=6.8.1)
2025-03-13T20:55:32.646876853Z [2025-03-13 20:55:32] [[32minfo[39m] Starting p2p process with agent version othentic-cli/1.9.1 js-libp2p/2.5.0
2025-03-13T20:55:31.921123060Z [2025-03-13 20:55:31] [[32minfo[39m] Operator address: 0xeb0d8736Cc2c47882f112507cc8A3355d37D2413
2025-03-13T20:55:31.921150935Z [2025-03-13 20:55:31] [[32minfo[39m] Operator ID: 1
2025-03-13T20:55:31.921153435Z [2025-03-13 20:55:31] [[32minfo[39m] Authentication layer enabled: false
2025-03-13T20:55:27.127923807Z [2025-03-13 20:55:27] [[32minfo[39m] c3u dependencies initialized
2025-03-13T20:55:31.927088963Z [2025-03-13 20:55:31] [[32minfo[39m] Running a bootstrap node
2025-03-13T20:55:31.968672581Z [2025-03-13 20:55:31] [[32minfo[39m] Datastore opened at data/peerstore/aggregator
2025-03-13T20:55:32.031305591Z [2025-03-13 20:55:32] [[32minfo[39m] Libp2p node started with peer id: 12D3KooWBNFG1QjuF3UKAKvqhdXcxh9iBmj88cM5eU2EK5Pa91KB
2025-03-13T20:55:32.031873344Z [2025-03-13 20:55:32] [[32minfo[39m] Metrics server running at http://0.0.0.0:6060/
2025-03-13T20:55:32.034345106Z [2025-03-13 20:55:32] [[32minfo[39m] Listening on the following addresses: /ip4/127.0.0.1/tcp/9876/p2p/12D3KooWBNFG1QjuF3UKAKvqhdXcxh9iBmj88cM5eU2EK5Pa91KB, /ip4/172.20.0.2/tcp/9876/p2p/12D3KooWBNFG1QjuF3UKAKvqhdXcxh9iBmj88cM5eU2EK5Pa91KB
2025-03-13T20:55:32.046411956Z [2025-03-13 20:55:32] [[33mwarn[39m] Failed to connect to peer 12D3KooWH5uxeq9aoP9R5CVsdmq75xPqrp9383QHVT1s2LKnfhsg: Error: connection error 172.20.0.3:41787: connect ECONNREFUSED 172.20.0.3:41787
2025-03-13T20:55:32.058339388Z [2025-03-13 20:55:32] [[33mwarn[39m] Failed to connect to peer 12D3KooWGD6BbEKmGuoje9NacCzJHncwcW5vQxdp7opb4XVGnEy8: Error: connection error 172.20.0.5:46405: connect ECONNREFUSED 172.20.0.5:46405
2025-03-13T20:55:32.065446214Z [2025-03-13 20:55:32] [[33mwarn[39m] Failed to connect to peer 12D3KooWMvPFkhSeU8s54DNVut1RfHZS2jg42T1cVaZUbaF4oX3x: Error: connection error 172.20.0.4:45853: connect ECONNREFUSED 172.20.0.4:45853
2025-03-13T20:55:32.080686330Z [2025-03-13 20:55:32] [[32minfo[39m] Running task with id: 64001
2025-03-13T20:55:32.080710621Z [2025-03-13 20:55:32] [[32minfo[39m] Running task with id: 10001
2025-03-13T20:55:32.080712246Z [2025-03-13 20:55:32] [[32minfo[39m] Executing task
2025-03-13T20:55:32.080799038Z [2025-03-13 20:55:32] [[32minfo[39m] Running task with id: 10002
2025-03-13T20:55:32.080802997Z [2025-03-13 20:55:32] [[32minfo[39m] Executing task
2025-03-13T20:55:32.646919062Z [2025-03-13 20:55:32] [[32minfo[39m] Operator address: 0xeb0d8736Cc2c47882f112507cc8A3355d37D2413
2025-03-13T20:55:32.646954895Z [2025-03-13 20:55:32] [[32minfo[39m] Operator ID: 1
2025-03-13T20:55:32.646983812Z [2025-03-13 20:55:32] [[32minfo[39m] Authentication layer enabled: false
2025-03-13T20:55:32.652369254Z [2025-03-13 20:55:32] [[32minfo[39m] Running node with peer list
2025-03-13T20:55:32.686462002Z [2025-03-13 20:55:32] [[32minfo[39m] Datastore opened at data/peerstore/attester1
2025-03-13T20:55:55.340143607Z   proposer: '0x537907EFbC060A1b2dfd9F05fDa59DCBc1ca49b4',
2025-03-13T20:55:55.340145691Z   proposedByDelegate: null,
2025-03-13T20:55:55.340147691Z   executor: null,
2025-03-13T20:55:27.127924724Z [2025-03-13 20:55:27] [[32minfo[39m] tyu dependencies initialized
2025-03-13T20:55:27.127925724Z [2025-03-13 20:55:27] [[32minfo[39m] lXu dependencies initialized
2025-03-13T20:55:32.802244603Z [2025-03-13 20:55:32] [[32minfo[39m] Libp2p node started with peer id: 12D3KooWH5uxeq9aoP9R5CVsdmq75xPqrp9383QHVT1s2LKnfhsg
2025-03-13T20:55:32.803212857Z [2025-03-13 20:55:32] [[32minfo[39m] Listening on the following addresses: /ip4/127.0.0.1/tcp/43339/p2p/12D3KooWH5uxeq9aoP9R5CVsdmq75xPqrp9383QHVT1s2LKnfhsg, /ip4/172.20.0.3/tcp/43339/p2p/12D3KooWH5uxeq9aoP9R5CVsdmq75xPqrp9383QHVT1s2LKnfhsg
2025-03-13T20:55:32.827836268Z [2025-03-13 20:55:32] [[32minfo[39m] Connected to peer: 12D3KooWBNFG1QjuF3UKAKvqhdXcxh9iBmj88cM5eU2EK5Pa91KB
2025-03-13T20:55:32.827858476Z [2025-03-13 20:55:32] [[32minfo[39m] Peer count: 1
2025-03-13T20:55:32.832669749Z [2025-03-13 20:55:32] [[33mwarn[39m] Peer 12D3KooWGD6BbEKmGuoje9NacCzJHncwcW5vQxdp7opb4XVGnEy8 has no valid address
2025-03-13T20:55:32.832691958Z [2025-03-13 20:55:32] [[33mwarn[39m] Peer 12D3KooWMvPFkhSeU8s54DNVut1RfHZS2jg42T1cVaZUbaF4oX3x has no valid address
2025-03-13T20:55:34.133072190Z [2025-03-13 20:55:34] [[32minfo[39m] Operator now active, with ID 1 and share amount 11999999999999999
2025-03-13T20:55:34.134189070Z [2025-03-13 20:55:34] [[32minfo[39m] Connected to AVS WebAPI at: http://172.20.0.6:4002
2025-03-13T20:55:58.077702933Z [2025-03-13 20:55:58] [[32minfo[39m] New message received: proof of task: QmPzHdkFc7EUu7YWgX4R8q47PBFz99VeqjYkmMHdLfCb8k with definitionId: 0
2025-03-13T20:56:05.580588277Z [2025-03-13 20:56:05] [[32minfo[39m] signing pubkey: 6432e22928dd4eb548129a59c9f5e16b7b8cb55e4a6094ee4bc11c34ba71eb14ca43b919d9668d6eec529f0459a2dedee0df99dfe5dba02b928b34dcb962b7a2
2025-03-13T20:56:05.586139512Z [2025-03-13 20:56:05] [[32minfo[39m] signed
2025-03-13T20:57:42.310252082Z [2025-03-13 20:57:42] [[32minfo[39m] New message received: proof of task: QmcZM5FDaFQ3oCgh8gzxsSmAGatskXQcVbZg94sQgzPSEN with definitionId: 0
2025-03-13T20:57:50.730995729Z [2025-03-13 20:57:50] [[32minfo[39m] signing pubkey: 6432e22928dd4eb548129a59c9f5e16b7b8cb55e4a6094ee4bc11c34ba71eb14ca43b919d9668d6eec529f0459a2dedee0df99dfe5dba02b928b34dcb962b7a2
2025-03-13T20:55:27.127926557Z [2025-03-13 20:55:27] [[32minfo[39m] Emu dependencies initialized
2025-03-13T20:55:27.127927474Z [2025-03-13 20:55:27] [[32minfo[39m] Emu dependencies initialized
2025-03-13T20:55:27.127928349Z [2025-03-13 20:55:27] [[32minfo[39m] C8u dependencies initialized
2025-03-13T20:55:27.127929349Z [2025-03-13 20:55:27] [[32minfo[39m] pwu dependencies initialized
2025-03-13T20:55:27.177158086Z [2025-03-13 20:55:27] [[32minfo[39m] AZu dependencies initialized
2025-03-13T20:55:55.340149649Z   isExecuted: false,
2025-03-13T20:55:55.340156191Z   isSuccessful: null,
2025-03-13T20:55:55.340158399Z   ethGasPrice: null,
2025-03-13T20:55:55.340160316Z   maxFeePerGas: null,
2025-03-13T20:55:55.340162274Z   maxPriorityFeePerGas: null,
2025-03-13T20:55:55.340164399Z   gasUsed: null,
2025-03-13T20:55:32.083591719Z [2025-03-13 20:55:32] [[32minfo[39m] JSON-RPC server started, listening on port 8545
2025-03-13T20:55:32.539414543Z [2025-03-13 20:55:32] [[32minfo[39m] Connected to peer: 12D3KooWGD6BbEKmGuoje9NacCzJHncwcW5vQxdp7opb4XVGnEy8
2025-03-13T20:55:32.539453626Z [2025-03-13 20:55:32] [[32minfo[39m] Peer count: 1
2025-03-13T20:55:32.736508119Z [2025-03-13 20:55:32] [[32minfo[39m] Connected to peer: 12D3KooWMvPFkhSeU8s54DNVut1RfHZS2jg42T1cVaZUbaF4oX3x
2025-03-13T20:55:32.736536244Z [2025-03-13 20:55:32] [[32minfo[39m] Peer count: 2
2025-03-13T20:55:32.825619715Z [2025-03-13 20:55:32] [[32minfo[39m] Connected to peer: 12D3KooWH5uxeq9aoP9R5CVsdmq75xPqrp9383QHVT1s2LKnfhsg
2025-03-13T20:56:04.844568103Z   blockNumber: null,
2025-03-13T20:56:04.844571562Z   transactionHash: null,
2025-03-13T20:56:04.844575145Z   safeTxHash: '0x043dca7b0c9b33ffd7f9c9e80ae31374450a5ef159f49350d45a293b0ea92752',
2025-03-13T20:56:04.844584062Z   proposer: '0x537907EFbC060A1b2dfd9F05fDa59DCBc1ca49b4',
2025-03-13T20:55:55.340166399Z   fee: null,
2025-03-13T20:55:55.340168399Z   origin: '{"url": "https://apps-portal.safe.global/tx-builder", "name": "Transaction Builder", "note": null}',
2025-03-13T20:55:55.340171066Z   dataDecoded: null,
2025-03-13T20:55:55.340173107Z   confirmationsRequired: 1,
2025-03-13T20:56:04.844587770Z   proposedByDelegate: null,
2025-03-13T20:56:04.844591354Z   executor: null,
2025-03-13T20:56:04.844595437Z   isExecuted: false,
2025-03-13T20:56:04.844606520Z   isSuccessful: null,
2025-03-13T20:56:04.844619604Z   ethGasPrice: null,
2025-03-13T20:55:27.177616963Z [2025-03-13 20:55:27] [[32minfo[39m] pZu dependencies initialized
2025-03-13T20:55:27.178313675Z [2025-03-13 20:55:27] [[32minfo[39m] dXu dependencies initialized
2025-03-13T20:55:27.190714443Z [2025-03-13 20:55:27] [[32minfo[39m] XZu dependencies initialized
2025-03-13T20:55:27.191576781Z [2025-03-13 20:55:27] [[32minfo[39m] $Zu dependencies initialized
2025-03-13T20:55:32.825652466Z [2025-03-13 20:55:32] [[32minfo[39m] Peer count: 3
2025-03-13T20:55:58.070498857Z [2025-03-13 20:55:58] [[32minfo[39m] RPC request:
2025-03-13T20:55:58.070657524Z [2025-03-13 20:55:58] [[32minfo[39m] Response:
2025-03-13T20:56:06.385766659Z [2025-03-13 20:56:06] [[32minfo[39m] New message received signature: 0x16e13d5ffeec699bf23d0266a659e8f56c8de4f70570e4cd8e817f879c861446, 0x0bd9bb46de7d47b556116cd3135cee1d3a19e2d8a2c90e83e6d904656852d6c7
2025-03-13T20:56:06.392316857Z [2025-03-13 20:56:06] [[32minfo[39m] New message received signature: 0x18b8e537bb49f05d30aff1630ec51765044f8fa9a137bf6e29ff5f22e0940ade, 0x1542a18e6041f4d46bf8a3feb219b01979780ab902d28f392a23fdeef833b47e
2025-03-13T20:56:06.403014826Z [2025-03-13 20:56:06] [[32minfo[39m] Adding attestation for task with label: 0x70f4669a8b313b5b4735f1f91e52af44e7e98767a0eb3bfee703e93cb3a57b3b_true
2025-03-13T20:55:55.340175066Z   confirmations: [
2025-03-13T20:55:55.340177066Z     {
2025-03-13T20:55:27.191668281Z [2025-03-13 20:55:27] [[32minfo[39m] oXu dependencies initialized
2025-03-13T20:55:27.192680286Z [2025-03-13 20:55:27] [[32minfo[39m] WZu dependencies initialized
2025-03-13T20:55:27.426729041Z [2025-03-13 20:55:27] [[32minfo[39m] fZu dependencies initialized
2025-03-13T20:55:31.240063482Z [2025-03-13 20:55:31] [[31merror[39m] Unknown error occurred on chain: 17000
2025-03-13T20:55:31.240973695Z [2025-03-13 20:55:31] [[31merror[39m] missing revert data (action="call", data=null, reason=null, transaction={ "data": "0xcab1a5ef", "from": "0xa6ea2559B446D6A4176372b4Ba71Dbda37Dc5fb0", "to": "0x9d6817faa5b4C95f7F79dd7454d856e3eb4B3101" }, invocation=null, revert=null, code=CALL_EXCEPTION, version=6.8.1)
2025-03-13T20:57:50.733192573Z [2025-03-13 20:57:50] [[32minfo[39m] signed
2025-03-13T21:01:59.431709375Z [2025-03-13 21:01:59] [[32minfo[39m] New message received: proof of task: QmPiLkpADvk6aBMMZ79HiV72J7t9CWzSEejJoh1rGfFqjV with definitionId: 0
2025-03-13T20:56:06.407991058Z [2025-03-13 20:56:06] [[32minfo[39m] New message received signature: 0x14b99d7505c9dbcf521da8b723c76fc03bc9d186ed77f04d818f4463689ee7b2, 0x2975eee9ce9b95dcd94e849cb3497650062efcd3f69a2df9bef60dd46851b3b2
2025-03-13T20:56:07.052571666Z [2025-03-13 20:56:07] [[32minfo[39m] Aggregating attestation into 0x70f4669a8b313b5b4735f1f91e52af44e7e98767a0eb3bfee703e93cb3a57b3b_true
2025-03-13T20:55:32.424998074Z [2025-03-13 20:55:32] [[32minfo[39m] Datastore opened at data/peerstore/attester3
2025-03-13T20:55:32.494165408Z [2025-03-13 20:55:32] [[32minfo[39m] Libp2p node started with peer id: 12D3KooWGD6BbEKmGuoje9NacCzJHncwcW5vQxdp7opb4XVGnEy8
2025-03-13T20:55:32.495153913Z [2025-03-13 20:55:32] [[32minfo[39m] Listening on the following addresses: /ip4/127.0.0.1/tcp/44197/p2p/12D3KooWGD6BbEKmGuoje9NacCzJHncwcW5vQxdp7opb4XVGnEy8, /ip4/172.20.0.5/tcp/44197/p2p/12D3KooWGD6BbEKmGuoje9NacCzJHncwcW5vQxdp7opb4XVGnEy8
2025-03-13T20:55:32.500745231Z [2025-03-13 20:55:32] [[33mwarn[39m] Peer 12D3KooWH5uxeq9aoP9R5CVsdmq75xPqrp9383QHVT1s2LKnfhsg has no valid address
2025-03-13T20:55:32.540695924Z [2025-03-13 20:55:32] [[32minfo[39m] Connected to peer: 12D3KooWBNFG1QjuF3UKAKvqhdXcxh9iBmj88cM5eU2EK5Pa91KB
2025-03-13T20:55:32.540716924Z [2025-03-13 20:55:32] [[32minfo[39m] Peer count: 1
2025-03-13T20:55:32.548281627Z [2025-03-13 20:55:32] [[33mwarn[39m] Peer 12D3KooWMvPFkhSeU8s54DNVut1RfHZS2jg42T1cVaZUbaF4oX3x has no valid address
2025-03-13T20:55:55.340179024Z       owner: '0x537907EFbC060A1b2dfd9F05fDa59DCBc1ca49b4',
2025-03-13T20:55:55.340181149Z       submissionDate: '2025-03-13T20:05:01.425456Z',
2025-03-13T20:55:55.340183232Z       transactionHash: null,
2025-03-13T20:56:07.408291547Z [2025-03-13 20:56:07] [[32minfo[39m] Adding attestation for task with label: 0x70f4669a8b313b5b4735f1f91e52af44e7e98767a0eb3bfee703e93cb3a57b3b_true
2025-03-13T20:56:08.135457636Z [2025-03-13 20:56:08] [[32minfo[39m] Aggregating attestation into 0x70f4669a8b313b5b4735f1f91e52af44e7e98767a0eb3bfee703e93cb3a57b3b_true
2025-03-13T20:56:04.844626145Z   maxFeePerGas: null,
2025-03-13T20:56:04.844629645Z   maxPriorityFeePerGas: null,
2025-03-13T20:56:04.844633270Z   gasUsed: null,
2025-03-13T20:56:04.844636770Z   fee: null,
2025-03-13T20:56:04.844640229Z   origin: '{"url": "https://apps-portal.safe.global/tx-builder", "name": "Transaction Builder", "note": null}',
2025-03-13T20:56:04.844646979Z   dataDecoded: null,
2025-03-13T20:56:04.844651937Z   confirmationsRequired: 1,
2025-03-13T20:56:04.844677937Z   confirmations: [
2025-03-13T20:55:55.340262608Z       signature: '0xf9da73ed5ec307cfaa7229441d74e3aebb3fd285a43891f928128dd5f865503b345242e65f4556e12413573c3f6a284472e2e8319943891b3531626a0c0e18721c',
2025-03-13T20:55:55.340272691Z       signatureType: 'EOA'
2025-03-13T20:55:55.340276900Z     }
2025-03-13T20:55:55.340278941Z   ],
2025-03-13T21:02:07.207493915Z [2025-03-13 21:02:07] [[32minfo[39m] signing pubkey: 6432e22928dd4eb548129a59c9f5e16b7b8cb55e4a6094ee4bc11c34ba71eb14ca43b919d9668d6eec529f0459a2dedee0df99dfe5dba02b928b34dcb962b7a2
2025-03-13T21:02:07.210588054Z [2025-03-13 21:02:07] [[32minfo[39m] signed
2025-03-13T20:55:33.730083954Z [2025-03-13 20:55:33] [[32minfo[39m] Operator now active, with ID 3 and share amount 11999999999999999
2025-03-13T20:55:33.730234747Z [2025-03-13 20:55:33] [[32minfo[39m] Connected to AVS WebAPI at: http://172.20.0.6:4002
2025-03-13T20:56:04.844682271Z     {
2025-03-13T20:56:04.844955189Z       owner: '0x537907EFbC060A1b2dfd9F05fDa59DCBc1ca49b4',
2025-03-13T20:55:31.646153858Z [2025-03-13 20:55:31] [[32minfo[39m] Starting p2p process with agent version othentic-cli/1.9.1 js-libp2p/2.5.0
2025-03-13T20:55:31.646251483Z [2025-03-13 20:55:31] [[32minfo[39m] Operator address: 0xa6ea2559B446D6A4176372b4Ba71Dbda37Dc5fb0
2025-03-13T20:55:31.646270650Z [2025-03-13 20:55:31] [[32minfo[39m] Operator ID: 2
2025-03-13T20:55:31.646305817Z [2025-03-13 20:55:31] [[32minfo[39m] Authentication layer enabled: false
2025-03-13T20:55:31.649690958Z [2025-03-13 20:55:31] [[32minfo[39m] Running node with peer list
2025-03-13T20:55:55.340280941Z   trusted: true,
2025-03-13T20:55:55.340282941Z   signatures: null
2025-03-13T20:56:04.844970814Z       submissionDate: '2025-03-13T20:05:01.425456Z',
2025-03-13T20:56:04.844974980Z       transactionHash: null,
2025-03-13T20:55:58.078130769Z [2025-03-13 20:55:58] [[32minfo[39m] New message received: proof of task: QmPzHdkFc7EUu7YWgX4R8q47PBFz99VeqjYkmMHdLfCb8k with definitionId: 0
2025-03-13T20:56:05.693698322Z [2025-03-13 20:56:05] [[32minfo[39m] signing pubkey: 9a7b653bd91cf2b1eb629d8a3df12660fd97ffa72b86d74eb7ab09a54d87a62229bcb992c22e079d5de9253ec9c97e0aba475606be9309ce035802f6bbca7919
2025-03-13T20:56:05.698411470Z [2025-03-13 20:56:05] [[32minfo[39m] signed
2025-03-13T20:57:42.310492291Z [2025-03-13 20:57:42] [[32minfo[39m] New message received: proof of task: QmcZM5FDaFQ3oCgh8gzxsSmAGatskXQcVbZg94sQgzPSEN with definitionId: 0
2025-03-13T20:57:50.695422891Z [2025-03-13 20:57:50] [[32minfo[39m] signing pubkey: 9a7b653bd91cf2b1eb629d8a3df12660fd97ffa72b86d74eb7ab09a54d87a62229bcb992c22e079d5de9253ec9c97e0aba475606be9309ce035802f6bbca7919
2025-03-13T20:56:04.844977939Z       signature: '0xf9da73ed5ec307cfaa7229441d74e3aebb3fd285a43891f928128dd5f865503b345242e65f4556e12413573c3f6a284472e2e8319943891b3531626a0c0e18721c',
2025-03-13T20:56:04.844981064Z       signatureType: 'EOA'
2025-03-13T20:56:04.844983522Z     }
2025-03-13T20:56:04.844985939Z   ],
2025-03-13T20:56:04.844988272Z   trusted: true,
2025-03-13T20:56:04.844990897Z   signatures: null
2025-03-13T20:56:04.844993439Z }
2025-03-13T20:56:09.349547698Z [2025-03-13 20:56:09] [[32minfo[39m] Aggregating attestation into 0x70f4669a8b313b5b4735f1f91e52af44e7e98767a0eb3bfee703e93cb3a57b3b_true
2025-03-13T20:56:09.703252945Z [2025-03-13 20:56:09] [[32minfo[39m] Submitting task signed by operators: 1,2
2025-03-13T20:56:11.642636419Z [2025-03-13 20:56:11] [[32minfo[39m] Task with proofOfTask:QmPzHdkFc7EUu7YWgX4R8q47PBFz99VeqjYkmMHdLfCb8k has been approved and submitted, tx: 0x387ce584f4d9a23c57155a774f527100f3fe31eb8a5cd48e2cbe19d4673050f9
2025-03-13T20:56:11.644529803Z [2025-03-13 20:56:11] [[32minfo[39m] Adding attestation for task with label: 0x70f4669a8b313b5b4735f1f91e52af44e7e98767a0eb3bfee703e93cb3a57b3b_true
2025-03-13T20:56:12.290373042Z [2025-03-13 20:56:12] [[32minfo[39m] Aggregating attestation into 0x70f4669a8b313b5b4735f1f91e52af44e7e98767a0eb3bfee703e93cb3a57b3b_true
2025-03-13T20:57:42.299536822Z [2025-03-13 20:57:42] [[32minfo[39m] RPC request:
2025-03-13T20:56:04.869834642Z Transaction data received: {
2025-03-13T20:56:04.869919517Z   safe: '0x80De3dfEF1Ef6cbaBEc9063D1B6AFeab2a73f4f8',
2025-03-13T20:56:04.869925392Z   to: '0x48914C788295b5db23aF2b5F0B3BE775C4eA9440',
2025-03-13T20:56:04.869927684Z   value: '0',
2025-03-13T20:55:55.340284983Z }
2025-03-13T20:55:57.968238864Z proofOfTask: QmPzHdkFc7EUu7YWgX4R8q47PBFz99VeqjYkmMHdLfCb8k
2025-03-13T20:55:58.070331731Z API response: []
2025-03-13T20:57:38.233461628Z Validating execution request
2025-03-13T20:57:50.699370202Z [2025-03-13 20:57:50] [[32minfo[39m] signed
2025-03-13T21:01:59.422711831Z [2025-03-13 21:01:59] [[32minfo[39m] New message received: proof of task: QmPiLkpADvk6aBMMZ79HiV72J7t9CWzSEejJoh1rGfFqjV with definitionId: 0
2025-03-13T21:02:07.205303737Z [2025-03-13 21:02:07] [[32minfo[39m] signing pubkey: 9a7b653bd91cf2b1eb629d8a3df12660fd97ffa72b86d74eb7ab09a54d87a62229bcb992c22e079d5de9253ec9c97e0aba475606be9309ce035802f6bbca7919
2025-03-13T20:56:04.869929642Z   data: '0xe8eda9df000000000000000000000000eb0d8736cc2c47882f112507cc8a3355d37d2413000000000000000000000000000000000000000000000000000000e8d4a51000000000000000000000000000eb0d8736cc2c47882f112507cc8a3355d37d24130000000000000000000000000000000000000000000000000000000000000000',
2025-03-13T20:56:04.869932434Z   operation: 0,
2025-03-13T20:56:04.869934059Z   gasToken: '0x0000000000000000000000000000000000000000',
2025-03-13T20:56:04.869935767Z   safeTxGas: '0',
2025-03-13T20:57:42.299780031Z [2025-03-13 20:57:42] [[32minfo[39m] Response:
2025-03-13T20:57:51.155131687Z [2025-03-13 20:57:51] [[32minfo[39m] New message received signature: 0x16319aee3e339ccd887fd9e6b76ec5268bf0d29f3b26cc89c8e76fcc858c4dbf, 0x1defa4e4d1dcb7694f6c4f178ab853521cf16e13511689483ec98a1b571564d4
2025-03-13T20:57:51.158366327Z [2025-03-13 20:57:51] [[32minfo[39m] New message received signature: 0x0ac8282269eadabb07daf170ac7c55788e6435ceb02d0bbee54e8dcdd5e6ed92, 0x2746ae1e8ee790365b5a9e83e1598f75968e4f65196a84f09cc8c1386e0c84d9
2025-03-13T20:57:51.162319388Z [2025-03-13 20:57:51] [[32minfo[39m] New message received signature: 0x2fbab760aa2348ae87023e2e46c022e94eb0109eb209bed65ceb3fbc239869d8, 0x2726765755cd8cc9e7661a0cae449014a2e51e52243ccbdf271237f1099e96e0
2025-03-13T20:56:04.869937351Z   baseGas: '0',
2025-03-13T20:56:04.869938934Z   gasPrice: '0',
2025-03-13T20:56:04.869940559Z   refundReceiver: '0x0000000000000000000000000000000000000000',
2025-03-13T20:56:04.869942309Z   nonce: '1',
2025-03-13T20:56:04.869944059Z   executionDate: null,
2025-03-13T20:56:04.869945767Z   submissionDate: '2025-03-13T20:05:01.280960Z',
2025-03-13T20:57:51.168708669Z [2025-03-13 20:57:51] [[32minfo[39m] Adding attestation for task with label: 0x83e1fcd25845e6254143b0702edbbd2f26046ed449db65e6118b822d972e7f88_true
2025-03-13T20:57:51.855805433Z [2025-03-13 20:57:51] [[32minfo[39m] Aggregating attestation into 0x83e1fcd25845e6254143b0702edbbd2f26046ed449db65e6118b822d972e7f88_true
2025-03-13T20:56:04.869947434Z   modified: '2025-03-13T20:05:01.425456Z',
2025-03-13T20:56:04.869949143Z   blockNumber: null,
2025-03-13T20:56:04.869950726Z   transactionHash: null,
2025-03-13T20:55:31.684419126Z [2025-03-13 20:55:31] [[32minfo[39m] Datastore opened at data/peerstore/attester2
2025-03-13T20:55:31.789949302Z [2025-03-13 20:55:31] [[32minfo[39m] Libp2p node started with peer id: 12D3KooWMvPFkhSeU8s54DNVut1RfHZS2jg42T1cVaZUbaF4oX3x
2025-03-13T20:55:31.790854639Z [2025-03-13 20:55:31] [[32minfo[39m] Listening on the following addresses: /ip4/127.0.0.1/tcp/33293/p2p/12D3KooWMvPFkhSeU8s54DNVut1RfHZS2jg42T1cVaZUbaF4oX3x, /ip4/172.20.0.4/tcp/33293/p2p/12D3KooWMvPFkhSeU8s54DNVut1RfHZS2jg42T1cVaZUbaF4oX3x
2025-03-13T21:02:07.208051251Z [2025-03-13 21:02:07] [[32minfo[39m] signed
2025-03-13T20:57:39.384086957Z Transaction data received: {
2025-03-13T20:57:39.384257125Z   safe: '0x80De3dfEF1Ef6cbaBEc9063D1B6AFeab2a73f4f8',
2025-03-13T20:57:39.384269083Z   to: '0x07eA79F68B2B3df564D0A34F8e19D9B1e339814b',
2025-03-13T20:57:39.384282083Z   value: '0',
2025-03-13T20:56:04.869952434Z   safeTxHash: '0x043dca7b0c9b33ffd7f9c9e80ae31374450a5ef159f49350d45a293b0ea92752',
2025-03-13T20:56:04.869955351Z   proposer: '0x537907EFbC060A1b2dfd9F05fDa59DCBc1ca49b4',
2025-03-13T20:56:04.869957101Z   proposedByDelegate: null,
2025-03-13T20:56:04.869958768Z   executor: null,
2025-03-13T20:56:04.869960351Z   isExecuted: false,
2025-03-13T20:55:31.801142731Z [2025-03-13 20:55:31] [[33mwarn[39m] Peer 12D3KooWH5uxeq9aoP9R5CVsdmq75xPqrp9383QHVT1s2LKnfhsg has no valid address
2025-03-13T20:55:31.814285836Z [2025-03-13 20:55:31] [[33mwarn[39m] Failed to connect to peer 12D3KooWBNFG1QjuF3UKAKvqhdXcxh9iBmj88cM5eU2EK5Pa91KB: AggregateError: All multiaddr dials failed
2025-03-13T20:55:31.814315711Z [2025-03-13 20:55:31] [[33mwarn[39m] Peer 12D3KooWGD6BbEKmGuoje9NacCzJHncwcW5vQxdp7opb4XVGnEy8 has no valid address
2025-03-13T20:57:52.188619035Z [2025-03-13 20:57:52] [[32minfo[39m] Adding attestation for task with label: 0x83e1fcd25845e6254143b0702edbbd2f26046ed449db65e6118b822d972e7f88_true
2025-03-13T20:57:53.925137182Z [2025-03-13 20:57:53] [[32minfo[39m] Aggregating attestation into 0x83e1fcd25845e6254143b0702edbbd2f26046ed449db65e6118b822d972e7f88_true
2025-03-13T20:57:54.627674854Z [2025-03-13 20:57:54] [[32minfo[39m] Aggregating attestation into 0x83e1fcd25845e6254143b0702edbbd2f26046ed449db65e6118b822d972e7f88_true
2025-03-13T20:57:54.956622520Z [2025-03-13 20:57:54] [[32minfo[39m] Submitting task signed by operators: 2,3
2025-03-13T20:57:56.854637694Z [2025-03-13 20:57:56] [[32minfo[39m] Task with proofOfTask:QmcZM5FDaFQ3oCgh8gzxsSmAGatskXQcVbZg94sQgzPSEN has been approved and submitted, tx: 0x0383b771ac0e2a6352aa6f8b515bc38a45f167cf4665c801243d3f671cda9ca4
2025-03-13T20:56:04.869961934Z   isSuccessful: null,
2025-03-13T20:56:04.869963518Z   ethGasPrice: null,
2025-03-13T20:56:04.869965059Z   maxFeePerGas: null,
2025-03-13T20:56:04.869966601Z   maxPriorityFeePerGas: null,
2025-03-13T20:57:39.384287375Z   data: '0xa415bcad000000000000000000000000036cbd53842c5426634e7929541ec2318f3dcf7e0000000000000000000000000000000000000000000000000000000014dc938000000000000000000000000000000000000000000000000000000000000000020000000000000000000000000000000000000000000000000000000000000000000000000000000000000000eb0d8736cc2c47882f112507cc8a3355d37d2413',
2025-03-13T20:57:39.384294167Z   operation: 0,
2025-03-13T20:57:39.384308208Z   gasToken: '0x0000000000000000000000000000000000000000',
2025-03-13T20:56:04.869968268Z   gasUsed: null,
2025-03-13T20:56:04.869989976Z   fee: null,
2025-03-13T20:56:04.869991851Z   origin: '{"url": "https://apps-portal.safe.global/tx-builder", "name": "Transaction Builder", "note": null}',
2025-03-13T20:55:32.513803086Z [2025-03-13 20:55:32] [[32minfo[39m] Operator now active, with ID 2 and share amount 11999999999999999
2025-03-13T20:55:32.513829544Z [2025-03-13 20:55:32] [[32minfo[39m] Connected to AVS WebAPI at: http://172.20.0.6:4002
2025-03-13T20:55:32.748258425Z [2025-03-13 20:55:32] [[32minfo[39m] Connected to peer: 12D3KooWBNFG1QjuF3UKAKvqhdXcxh9iBmj88cM5eU2EK5Pa91KB
2025-03-13T20:55:32.748285301Z [2025-03-13 20:55:32] [[32minfo[39m] Peer count: 1
2025-03-13T20:57:39.384315208Z   safeTxGas: '0',
2025-03-13T20:57:39.384318833Z   baseGas: '0',
2025-03-13T20:57:39.384322709Z   gasPrice: '0',
2025-03-13T20:57:39.384326250Z   refundReceiver: '0x0000000000000000000000000000000000000000',
2025-03-13T20:57:39.384330334Z   nonce: '0',
2025-03-13T20:57:39.384333959Z   executionDate: null,
2025-03-13T20:56:04.869994434Z   dataDecoded: null,
2025-03-13T20:56:04.869996018Z   confirmationsRequired: 1,
2025-03-13T20:56:04.869997643Z   confirmations: [
2025-03-13T20:56:04.869999184Z     {
2025-03-13T20:56:04.870000809Z       owner: '0x537907EFbC060A1b2dfd9F05fDa59DCBc1ca49b4',
2025-03-13T20:56:04.870002518Z       submissionDate: '2025-03-13T20:05:01.425456Z',
2025-03-13T20:57:56.856094326Z [2025-03-13 20:57:56] [[32minfo[39m] Adding attestation for task with label: 0x83e1fcd25845e6254143b0702edbbd2f26046ed449db65e6118b822d972e7f88_true
2025-03-13T20:57:57.608424612Z [2025-03-13 20:57:57] [[32minfo[39m] Aggregating attestation into 0x83e1fcd25845e6254143b0702edbbd2f26046ed449db65e6118b822d972e7f88_true
2025-03-13T21:01:59.401082853Z [2025-03-13 21:01:59] [[32minfo[39m] RPC request:
2025-03-13T21:01:59.401722439Z [2025-03-13 21:01:59] [[32minfo[39m] Response:
2025-03-13T21:02:07.615889415Z [2025-03-13 21:02:07] [[32minfo[39m] New message received signature: 0x19e6d728b0302a1c71947e13a6e4b1b8cc6c40ef281996fdba79b7cfc8eb4f2c, 0x14fcd34b6fa9a07594e0b79b50343e86eccfc9e627af44570e4a68c60ed4e8a4
2025-03-13T20:56:04.870004226Z       transactionHash: null,
2025-03-13T20:56:04.870005934Z       signature: '0xf9da73ed5ec307cfaa7229441d74e3aebb3fd285a43891f928128dd5f865503b345242e65f4556e12413573c3f6a284472e2e8319943891b3531626a0c0e18721c',
2025-03-13T20:56:04.870008101Z       signatureType: 'EOA'
2025-03-13T20:56:04.870009726Z     }
2025-03-13T20:57:39.384346500Z   submissionDate: '2025-03-13T11:47:50.256774Z',
2025-03-13T20:57:39.384351584Z   modified: '2025-03-13T11:47:50.326871Z',
2025-03-13T20:57:39.384360042Z   blockNumber: null,
2025-03-13T20:55:58.083496378Z [2025-03-13 20:55:58] [[32minfo[39m] New message received: proof of task: QmPzHdkFc7EUu7YWgX4R8q47PBFz99VeqjYkmMHdLfCb8k with definitionId: 0
2025-03-13T20:56:05.581119988Z [2025-03-13 20:56:05] [[32minfo[39m] signing pubkey: 6a44046417cdca8088d64f39e7a98fc36e0f058776c3959ca61420cb7f66322a141930e00a7e53b325e48676dadc8bcc68a989bccb3f7587ea2c63bbef30d198
2025-03-13T20:56:05.586567806Z [2025-03-13 20:56:05] [[32minfo[39m] signed
2025-03-13T20:56:04.870011268Z   ],
2025-03-13T20:56:04.870012851Z   trusted: true,
2025-03-13T20:56:04.870014434Z   signatures: null
2025-03-13T20:56:04.870015976Z }
2025-03-13T20:56:05.022705129Z Transaction data received: {
2025-03-13T21:02:07.623195866Z [2025-03-13 21:02:07] [[32minfo[39m] New message received signature: 0x1b2bc597974e84bb9bc20565e16b1a41316cb2434d679877ce2a1299236e6d68, 0x0ba865e53ef6c8b4c55d97ee02ecf71e7cad65a7eeb40431097b6fc34537eb88
2025-03-13T21:02:07.632473161Z [2025-03-13 21:02:07] [[32minfo[39m] Adding attestation for task with label: 0xc059b2260d7a42627b82575466c04d4ff475e3edaf79e92b966b565f52cdff5f_true
2025-03-13T21:02:07.808776840Z [2025-03-13 21:02:07] [[32minfo[39m] New message received signature: 0x0afa19a84238d68594352a5457df6f1ab064d2147a29d18a53ebbb5ad6c4bafd, 0x0f2734f5282e848b1ee1c40e50dc4f75588d5ec5e06133e6056a8ea6ae7c7034
2025-03-13T21:02:08.821455362Z [2025-03-13 21:02:08] [[32minfo[39m] Aggregating attestation into 0xc059b2260d7a42627b82575466c04d4ff475e3edaf79e92b966b565f52cdff5f_true
2025-03-13T21:02:09.177144568Z [2025-03-13 21:02:09] [[32minfo[39m] Adding attestation for task with label: 0xc059b2260d7a42627b82575466c04d4ff475e3edaf79e92b966b565f52cdff5f_true
2025-03-13T21:02:09.904840224Z [2025-03-13 21:02:09] [[32minfo[39m] Aggregating attestation into 0xc059b2260d7a42627b82575466c04d4ff475e3edaf79e92b966b565f52cdff5f_true
2025-03-13T21:02:10.642811347Z [2025-03-13 21:02:10] [[32minfo[39m] Aggregating attestation into 0xc059b2260d7a42627b82575466c04d4ff475e3edaf79e92b966b565f52cdff5f_true
2025-03-13T21:02:11.005217459Z [2025-03-13 21:02:11] [[32minfo[39m] Submitting task signed by operators: 1,3
2025-03-13T21:02:12.855260831Z [2025-03-13 21:02:12] [[32minfo[39m] Task with proofOfTask:QmPiLkpADvk6aBMMZ79HiV72J7t9CWzSEejJoh1rGfFqjV has been approved and submitted, tx: 0xc67b08fb5def2d76985eb7f51dd9ed6b20b18046b471266d2231784d204a246c
2025-03-13T21:02:12.856899422Z [2025-03-13 21:02:12] [[32minfo[39m] Adding attestation for task with label: 0xc059b2260d7a42627b82575466c04d4ff475e3edaf79e92b966b565f52cdff5f_true
2025-03-13T21:02:13.559373415Z [2025-03-13 21:02:13] [[32minfo[39m] Aggregating attestation into 0xc059b2260d7a42627b82575466c04d4ff475e3edaf79e92b966b565f52cdff5f_true
2025-03-13T20:57:39.384366292Z   transactionHash: null,
2025-03-13T20:57:39.384370542Z   safeTxHash: '0x3c65af5cc6842ed10ef72198712102f621b4c4ca667444ea333990bf79cce328',
2025-03-13T20:57:39.384378917Z   proposer: '0x537907EFbC060A1b2dfd9F05fDa59DCBc1ca49b4',
2025-03-13T20:57:39.384385709Z   proposedByDelegate: null,
2025-03-13T20:57:39.384389417Z   executor: null,
2025-03-13T20:57:39.384393042Z   isExecuted: false,
2025-03-13T20:57:39.384396459Z   isSuccessful: null,
2025-03-13T20:56:05.022846921Z   safe: '0x80De3dfEF1Ef6cbaBEc9063D1B6AFeab2a73f4f8',
2025-03-13T20:56:05.022850880Z   to: '0x48914C788295b5db23aF2b5F0B3BE775C4eA9440',
2025-03-13T20:57:39.384399959Z   ethGasPrice: null,
2025-03-13T20:57:39.384405251Z   maxFeePerGas: null,
2025-03-13T20:56:05.022854421Z   value: '0',
2025-03-13T20:56:05.022857338Z   data: '0xe8eda9df000000000000000000000000eb0d8736cc2c47882f112507cc8a3355d37d2413000000000000000000000000000000000000000000000000000000e8d4a51000000000000000000000000000eb0d8736cc2c47882f112507cc8a3355d37d24130000000000000000000000000000000000000000000000000000000000000000',
2025-03-13T20:56:05.022860838Z   operation: 0,
2025-03-13T20:56:05.022862838Z   gasToken: '0x0000000000000000000000000000000000000000',
2025-03-13T20:56:05.022865005Z   safeTxGas: '0',
2025-03-13T20:56:05.022867005Z   baseGas: '0',
2025-03-13T20:56:05.022869380Z   gasPrice: '0',
2025-03-13T20:56:05.022871380Z   refundReceiver: '0x0000000000000000000000000000000000000000',
2025-03-13T20:57:39.384409084Z   maxPriorityFeePerGas: null,
2025-03-13T20:56:05.022873588Z   nonce: '1',
2025-03-13T20:56:05.022875547Z   executionDate: null,
2025-03-13T20:56:05.022877547Z   submissionDate: '2025-03-13T20:05:01.280960Z',
2025-03-13T20:57:42.306230854Z [2025-03-13 20:57:42] [[32minfo[39m] New message received: proof of task: QmcZM5FDaFQ3oCgh8gzxsSmAGatskXQcVbZg94sQgzPSEN with definitionId: 0
2025-03-13T20:57:50.717425872Z [2025-03-13 20:57:50] [[32minfo[39m] signing pubkey: 6a44046417cdca8088d64f39e7a98fc36e0f058776c3959ca61420cb7f66322a141930e00a7e53b325e48676dadc8bcc68a989bccb3f7587ea2c63bbef30d198
2025-03-13T20:57:50.721500142Z [2025-03-13 20:57:50] [[32minfo[39m] signed
2025-03-13T20:56:05.022879630Z   modified: '2025-03-13T20:05:01.425456Z',
2025-03-13T20:56:05.022881713Z   blockNumber: null,
2025-03-13T21:01:59.428900486Z [2025-03-13 21:01:59] [[32minfo[39m] New message received: proof of task: QmPiLkpADvk6aBMMZ79HiV72J7t9CWzSEejJoh1rGfFqjV with definitionId: 0
2025-03-13T21:02:07.390556584Z [2025-03-13 21:02:07] [[32minfo[39m] signing pubkey: 6a44046417cdca8088d64f39e7a98fc36e0f058776c3959ca61420cb7f66322a141930e00a7e53b325e48676dadc8bcc68a989bccb3f7587ea2c63bbef30d198
2025-03-13T21:02:07.393011762Z [2025-03-13 21:02:07] [[32minfo[39m] signed
2025-03-13T20:56:05.022883713Z   transactionHash: null,
2025-03-13T20:56:05.022885838Z   safeTxHash: '0x043dca7b0c9b33ffd7f9c9e80ae31374450a5ef159f49350d45a293b0ea92752',
2025-03-13T20:56:05.022888088Z   proposer: '0x537907EFbC060A1b2dfd9F05fDa59DCBc1ca49b4',
2025-03-13T20:56:05.022890172Z   proposedByDelegate: null,
2025-03-13T20:56:05.023037672Z   executor: null,
2025-03-13T20:56:05.023051297Z   isExecuted: false,
2025-03-13T20:56:05.023053506Z   isSuccessful: null,
2025-03-13T20:56:05.023055589Z   ethGasPrice: null,
2025-03-13T20:56:05.023057506Z   maxFeePerGas: null,
2025-03-13T20:56:05.023059631Z   maxPriorityFeePerGas: null,
2025-03-13T20:56:05.023061631Z   gasUsed: null,
2025-03-13T20:56:05.023063589Z   fee: null,
2025-03-13T20:56:05.023065631Z   origin: '{"url": "https://apps-portal.safe.global/tx-builder", "name": "Transaction Builder", "note": null}',
2025-03-13T20:56:05.023068381Z   dataDecoded: null,
2025-03-13T20:56:05.023071131Z   confirmationsRequired: 1,
2025-03-13T20:56:05.023073131Z   confirmations: [
2025-03-13T20:56:05.023075089Z     {
2025-03-13T20:56:05.023077089Z       owner: '0x537907EFbC060A1b2dfd9F05fDa59DCBc1ca49b4',
2025-03-13T20:56:05.023079172Z       submissionDate: '2025-03-13T20:05:01.425456Z',
2025-03-13T20:56:05.023081256Z       transactionHash: null,
2025-03-13T20:56:05.023083298Z       signature: '0xf9da73ed5ec307cfaa7229441d74e3aebb3fd285a43891f928128dd5f865503b345242e65f4556e12413573c3f6a284472e2e8319943891b3531626a0c0e18721c',
2025-03-13T20:56:05.023085714Z       signatureType: 'EOA'
2025-03-13T20:56:05.023087714Z     }
2025-03-13T20:56:05.023089631Z   ],
2025-03-13T20:56:05.023091506Z   trusted: true,
2025-03-13T20:56:05.023093548Z   signatures: null
2025-03-13T20:56:05.023095506Z }
2025-03-13T20:56:05.548412664Z Validation result: Approved
2025-03-13T20:56:05.567498131Z Validation result: Approved
2025-03-13T20:56:05.683417065Z Validation result: Approved
2025-03-13T20:57:43.551164137Z Validate task: proof of task: QmcZM5FDaFQ3oCgh8gzxsSmAGatskXQcVbZg94sQgzPSEN
2025-03-13T20:57:44.062276888Z Validate task: proof of task: QmcZM5FDaFQ3oCgh8gzxsSmAGatskXQcVbZg94sQgzPSEN
2025-03-13T20:57:44.068143792Z Validate task: proof of task: QmcZM5FDaFQ3oCgh8gzxsSmAGatskXQcVbZg94sQgzPSEN
2025-03-13T20:57:49.936816658Z Transaction data received: {
2025-03-13T20:57:49.936984533Z   safe: '0x80De3dfEF1Ef6cbaBEc9063D1B6AFeab2a73f4f8',
2025-03-13T20:57:49.936994575Z   to: '0x07eA79F68B2B3df564D0A34F8e19D9B1e339814b',
2025-03-13T20:57:49.936998284Z   value: '0',
2025-03-13T20:57:49.937001950Z   data: '0xa415bcad000000000000000000000000036cbd53842c5426634e7929541ec2318f3dcf7e0000000000000000000000000000000000000000000000000000000014dc938000000000000000000000000000000000000000000000000000000000000000020000000000000000000000000000000000000000000000000000000000000000000000000000000000000000eb0d8736cc2c47882f112507cc8a3355d37d2413',
2025-03-13T20:57:39.384412667Z   gasUsed: null,
2025-03-13T20:57:39.384588960Z   fee: null,
2025-03-13T20:57:49.937006325Z   operation: 0,
2025-03-13T20:57:49.937009409Z   gasToken: '0x0000000000000000000000000000000000000000',
2025-03-13T20:57:49.937072201Z   safeTxGas: '0',
2025-03-13T20:57:49.937076659Z   baseGas: '0',
2025-03-13T20:57:49.937078867Z   gasPrice: '0',
2025-03-13T20:57:49.937080951Z   refundReceiver: '0x0000000000000000000000000000000000000000',
2025-03-13T20:57:49.937138451Z   nonce: '0',
2025-03-13T20:57:49.937141076Z   executionDate: null,
2025-03-13T20:57:49.937143076Z   submissionDate: '2025-03-13T11:47:50.256774Z',
2025-03-13T20:57:49.937145159Z   modified: '2025-03-13T11:47:50.326871Z',
2025-03-13T20:57:49.937147284Z   blockNumber: null,
2025-03-13T20:57:49.937149326Z   transactionHash: null,
2025-03-13T20:57:49.937151534Z   safeTxHash: '0x3c65af5cc6842ed10ef72198712102f621b4c4ca667444ea333990bf79cce328',
2025-03-13T20:57:49.937153826Z   proposer: '0x537907EFbC060A1b2dfd9F05fDa59DCBc1ca49b4',
2025-03-13T20:57:49.937156034Z   proposedByDelegate: null,
2025-03-13T20:57:49.937158201Z   executor: null,
2025-03-13T20:57:49.937160159Z   isExecuted: false,
2025-03-13T20:57:49.937162243Z   isSuccessful: null,
2025-03-13T20:57:49.937164201Z   ethGasPrice: null,
2025-03-13T20:57:49.937166118Z   maxFeePerGas: null,
2025-03-13T20:57:49.937168159Z   maxPriorityFeePerGas: null,
2025-03-13T20:57:49.937170201Z   gasUsed: null,
2025-03-13T20:57:49.937172159Z   fee: null,
2025-03-13T20:57:49.937174159Z   origin: '{"url": "https://apps-portal.safe.global/tx-builder", "name": "Transaction Builder", "note": null}',
2025-03-13T20:57:49.937176909Z   dataDecoded: { method: 'fallback', parameters: [] },
2025-03-13T20:57:49.937179076Z   confirmationsRequired: 1,
2025-03-13T20:57:49.937181034Z   confirmations: [
2025-03-13T20:57:49.937183076Z     {
2025-03-13T20:57:49.937185118Z       owner: '0x537907EFbC060A1b2dfd9F05fDa59DCBc1ca49b4',
2025-03-13T20:57:49.937189326Z       submissionDate: '2025-03-13T11:47:50.326871Z',
2025-03-13T20:57:49.937191534Z       transactionHash: null,
2025-03-13T20:57:49.937193659Z       signature: '0x0940f8fcc2b484cf2b784a82eaa41765a94214a34a5ec0434c7f4aa5a8a5b8b645bfaefcfb59950fad8a7251186dfd44d8f603a024e30eb687688fee6a6c4f691b',
2025-03-13T20:57:49.937196076Z       signatureType: 'EOA'
2025-03-13T20:57:49.937198076Z     }
2025-03-13T20:57:49.937199993Z   ],
2025-03-13T20:57:49.937201951Z   trusted: true,
2025-03-13T20:57:49.937203951Z   signatures: null
2025-03-13T20:57:49.937205910Z }
2025-03-13T20:57:49.977290436Z Transaction data received: {
2025-03-13T20:57:49.977381019Z   safe: '0x80De3dfEF1Ef6cbaBEc9063D1B6AFeab2a73f4f8',
2025-03-13T20:57:49.977390978Z   to: '0x07eA79F68B2B3df564D0A34F8e19D9B1e339814b',
2025-03-13T20:57:49.977449436Z   value: '0',
2025-03-13T20:57:49.977460062Z   data: '0xa415bcad000000000000000000000000036cbd53842c5426634e7929541ec2318f3dcf7e0000000000000000000000000000000000000000000000000000000014dc938000000000000000000000000000000000000000000000000000000000000000020000000000000000000000000000000000000000000000000000000000000000000000000000000000000000eb0d8736cc2c47882f112507cc8a3355d37d2413',
2025-03-13T20:57:49.977471270Z   operation: 0,
2025-03-13T20:57:49.977479895Z   gasToken: '0x0000000000000000000000000000000000000000',
2025-03-13T20:57:49.977483145Z   safeTxGas: '0',
2025-03-13T20:57:49.977485312Z   baseGas: '0',
2025-03-13T20:57:49.977487395Z   gasPrice: '0',
2025-03-13T20:57:49.977493770Z   refundReceiver: '0x0000000000000000000000000000000000000000',
2025-03-13T20:57:49.977502937Z   nonce: '0',
2025-03-13T20:57:49.977512437Z   executionDate: null,
2025-03-13T20:57:49.977518562Z   submissionDate: '2025-03-13T11:47:50.256774Z',
2025-03-13T20:57:49.977520645Z   modified: '2025-03-13T11:47:50.326871Z',
2025-03-13T20:57:49.977522687Z   blockNumber: null,
2025-03-13T20:57:49.977524812Z   transactionHash: null,
2025-03-13T20:57:49.977526895Z   safeTxHash: '0x3c65af5cc6842ed10ef72198712102f621b4c4ca667444ea333990bf79cce328',
2025-03-13T20:57:49.977529104Z   proposer: '0x537907EFbC060A1b2dfd9F05fDa59DCBc1ca49b4',
2025-03-13T20:57:39.384596210Z   origin: '{"url": "https://apps-portal.safe.global/tx-builder", "name": "Transaction Builder", "note": null}',
2025-03-13T20:57:39.384599835Z   dataDecoded: { method: 'fallback', parameters: [] },
2025-03-13T20:57:49.977531145Z   proposedByDelegate: null,
2025-03-13T20:57:49.977533145Z   executor: null,
2025-03-13T20:57:49.977535187Z   isExecuted: false,
2025-03-13T20:57:49.977537187Z   isSuccessful: null,
2025-03-13T20:57:49.977539229Z   ethGasPrice: null,
2025-03-13T20:57:49.977548937Z   maxFeePerGas: null,
2025-03-13T20:57:49.977558270Z   maxPriorityFeePerGas: null,
2025-03-13T20:57:49.977567937Z   gasUsed: null,
2025-03-13T20:57:39.384602543Z   confirmationsRequired: 1,
2025-03-13T20:57:39.384610752Z   confirmations: [
2025-03-13T20:57:39.384616293Z     {
2025-03-13T20:57:39.384618793Z       owner: '0x537907EFbC060A1b2dfd9F05fDa59DCBc1ca49b4',
2025-03-13T20:57:39.384662460Z       submissionDate: '2025-03-13T11:47:50.326871Z',
2025-03-13T20:57:39.384673377Z       transactionHash: null,
2025-03-13T20:57:39.384677752Z       signature: '0x0940f8fcc2b484cf2b784a82eaa41765a94214a34a5ec0434c7f4aa5a8a5b8b645bfaefcfb59950fad8a7251186dfd44d8f603a024e30eb687688fee6a6c4f691b',
2025-03-13T20:57:49.977577437Z   fee: null,
2025-03-13T20:57:49.977721521Z   origin: '{"url": "https://apps-portal.safe.global/tx-builder", "name": "Transaction Builder", "note": null}',
2025-03-13T20:57:39.384680710Z       signatureType: 'EOA'
2025-03-13T20:57:39.384683335Z     }
2025-03-13T20:57:39.384685669Z   ],
2025-03-13T20:57:39.384688002Z   trusted: true,
2025-03-13T20:57:39.384692877Z   signatures: null
2025-03-13T20:57:39.384698544Z }
2025-03-13T20:57:49.977734146Z   dataDecoded: { method: 'fallback', parameters: [] },
2025-03-13T20:57:49.977739355Z   confirmationsRequired: 1,
2025-03-13T20:57:49.977744938Z   confirmations: [
2025-03-13T20:57:49.977748188Z     {
2025-03-13T20:57:49.977749021Z       owner: '0x537907EFbC060A1b2dfd9F05fDa59DCBc1ca49b4',
2025-03-13T20:57:49.977749980Z       submissionDate: '2025-03-13T11:47:50.326871Z',
2025-03-13T20:57:49.977751355Z       transactionHash: null,
2025-03-13T20:57:42.247345529Z proofOfTask: QmcZM5FDaFQ3oCgh8gzxsSmAGatskXQcVbZg94sQgzPSEN
2025-03-13T20:57:42.300163867Z API response: []
2025-03-13T21:01:55.981652995Z Validating execution request
2025-03-13T21:01:56.715974850Z Transaction data received: {
2025-03-13T21:01:56.716339977Z   safe: '0x80De3dfEF1Ef6cbaBEc9063D1B6AFeab2a73f4f8',
2025-03-13T21:01:56.716352727Z   to: '0x07eA79F68B2B3df564D0A34F8e19D9B1e339814b',
2025-03-13T21:01:56.716356727Z   value: '0',
2025-03-13T21:01:56.716361185Z   data: '0xa415bcad000000000000000000000000036cbd53842c5426634e7929541ec2318f3dcf7e0000000000000000000000000000000000000000000000000000000014dc938000000000000000000000000000000000000000000000000000000000000000020000000000000000000000000000000000000000000000000000000000000000000000000000000000000000eb0d8736cc2c47882f112507cc8a3355d37d2413',
2025-03-13T21:01:56.716366810Z   operation: 0,
2025-03-13T21:01:56.716370019Z   gasToken: '0x0000000000000000000000000000000000000000',
2025-03-13T21:01:56.716384310Z   safeTxGas: '0',
2025-03-13T21:01:56.716387852Z   baseGas: '0',
2025-03-13T21:01:56.716390935Z   gasPrice: '0',
2025-03-13T21:01:56.716394060Z   refundReceiver: '0x0000000000000000000000000000000000000000',
2025-03-13T21:01:56.716397477Z   nonce: '0',
2025-03-13T21:01:56.716400727Z   executionDate: null,
2025-03-13T21:01:56.716404852Z   submissionDate: '2025-03-13T11:47:50.256774Z',
2025-03-13T21:01:56.716408102Z   modified: '2025-03-13T11:47:50.326871Z',
2025-03-13T21:01:56.716411227Z   blockNumber: null,
2025-03-13T21:01:56.716414894Z   transactionHash: null,
2025-03-13T21:01:56.716642687Z   safeTxHash: '0x3c65af5cc6842ed10ef72198712102f621b4c4ca667444ea333990bf79cce328',
2025-03-13T21:01:56.716651437Z   proposer: '0x537907EFbC060A1b2dfd9F05fDa59DCBc1ca49b4',
2025-03-13T21:01:56.716654062Z   proposedByDelegate: null,
2025-03-13T21:01:56.716656520Z   executor: null,
2025-03-13T21:01:56.716658853Z   isExecuted: false,
2025-03-13T21:01:56.716661145Z   isSuccessful: null,
2025-03-13T21:01:56.716663395Z   ethGasPrice: null,
2025-03-13T21:01:56.716665645Z   maxFeePerGas: null,
2025-03-13T21:01:56.716667853Z   maxPriorityFeePerGas: null,
2025-03-13T21:01:56.716670270Z   gasUsed: null,
2025-03-13T21:01:56.716672728Z   fee: null,
2025-03-13T21:01:56.716675062Z   origin: '{"url": "https://apps-portal.safe.global/tx-builder", "name": "Transaction Builder", "note": null}',
2025-03-13T21:01:56.716680437Z   dataDecoded: { method: 'fallback', parameters: [] },
2025-03-13T21:01:56.716683729Z   confirmationsRequired: 1,
2025-03-13T21:01:56.716686145Z   confirmations: [
2025-03-13T21:01:56.716688687Z     {
2025-03-13T21:01:56.716699395Z       owner: '0x537907EFbC060A1b2dfd9F05fDa59DCBc1ca49b4',
2025-03-13T21:01:56.716702354Z       submissionDate: '2025-03-13T11:47:50.326871Z',
2025-03-13T21:01:56.716704812Z       transactionHash: null,
2025-03-13T21:01:56.716707270Z       signature: '0x0940f8fcc2b484cf2b784a82eaa41765a94214a34a5ec0434c7f4aa5a8a5b8b645bfaefcfb59950fad8a7251186dfd44d8f603a024e30eb687688fee6a6c4f691b',
2025-03-13T21:01:56.716710354Z       signatureType: 'EOA'
2025-03-13T21:01:56.716712687Z     }
2025-03-13T20:57:49.977752313Z       signature: '0x0940f8fcc2b484cf2b784a82eaa41765a94214a34a5ec0434c7f4aa5a8a5b8b645bfaefcfb59950fad8a7251186dfd44d8f603a024e30eb687688fee6a6c4f691b',
2025-03-13T20:57:49.977753480Z       signatureType: 'EOA'
2025-03-13T20:57:49.977754271Z     }
2025-03-13T20:57:49.977849855Z   ],
2025-03-13T20:57:49.977858022Z   trusted: true,
2025-03-13T20:57:49.977859980Z   signatures: null
2025-03-13T20:57:49.977860938Z }
2025-03-13T20:57:50.040147363Z Transaction data received: {
2025-03-13T20:57:50.040362906Z   safe: '0x80De3dfEF1Ef6cbaBEc9063D1B6AFeab2a73f4f8',
2025-03-13T20:57:50.040460073Z   to: '0x07eA79F68B2B3df564D0A34F8e19D9B1e339814b',
2025-03-13T20:57:50.040462031Z   value: '0',
2025-03-13T20:57:50.040463198Z   data: '0xa415bcad000000000000000000000000036cbd53842c5426634e7929541ec2318f3dcf7e0000000000000000000000000000000000000000000000000000000014dc938000000000000000000000000000000000000000000000000000000000000000020000000000000000000000000000000000000000000000000000000000000000000000000000000000000000eb0d8736cc2c47882f112507cc8a3355d37d2413',
2025-03-13T20:57:50.040464781Z   operation: 0,
2025-03-13T20:57:50.040465615Z   gasToken: '0x0000000000000000000000000000000000000000',
2025-03-13T21:01:56.716714937Z   ],
2025-03-13T21:01:56.716717229Z   trusted: true,
2025-03-13T21:01:56.716725312Z   signatures: null
2025-03-13T21:01:56.716737979Z }
2025-03-13T21:01:59.293008459Z proofOfTask: QmPiLkpADvk6aBMMZ79HiV72J7t9CWzSEejJoh1rGfFqjV
2025-03-13T21:01:59.401209645Z API response: []
2025-03-13T20:57:50.040466490Z   safeTxGas: '0',
2025-03-13T20:57:50.040467365Z   baseGas: '0',
2025-03-13T20:57:50.040468323Z   gasPrice: '0',
2025-03-13T20:57:50.040469156Z   refundReceiver: '0x0000000000000000000000000000000000000000',
2025-03-13T20:57:50.040470073Z   nonce: '0',
2025-03-13T20:57:50.040470865Z   executionDate: null,
2025-03-13T20:57:50.040471698Z   submissionDate: '2025-03-13T11:47:50.256774Z',
2025-03-13T20:57:50.040473281Z   modified: '2025-03-13T11:47:50.326871Z',
2025-03-13T20:57:50.040474156Z   blockNumber: null,
2025-03-13T20:57:50.040475073Z   transactionHash: null,
2025-03-13T20:57:50.040475990Z   safeTxHash: '0x3c65af5cc6842ed10ef72198712102f621b4c4ca667444ea333990bf79cce328',
2025-03-13T20:57:50.040476948Z   proposer: '0x537907EFbC060A1b2dfd9F05fDa59DCBc1ca49b4',
2025-03-13T20:57:50.040477823Z   proposedByDelegate: null,
2025-03-13T20:57:50.040540532Z   executor: null,
2025-03-13T20:57:50.040541448Z   isExecuted: false,
2025-03-13T20:57:50.040542282Z   isSuccessful: null,
2025-03-13T20:57:50.040543157Z   ethGasPrice: null,
2025-03-13T20:57:50.040543990Z   maxFeePerGas: null,
2025-03-13T20:57:50.040544823Z   maxPriorityFeePerGas: null,
2025-03-13T20:57:50.040545698Z   gasUsed: null,
2025-03-13T20:57:50.040546573Z   fee: null,
2025-03-13T20:57:50.040547448Z   origin: '{"url": "https://apps-portal.safe.global/tx-builder", "name": "Transaction Builder", "note": null}',
2025-03-13T20:57:50.040548782Z   dataDecoded: { method: 'fallback', parameters: [] },
2025-03-13T20:57:50.040549615Z   confirmationsRequired: 1,
2025-03-13T20:57:50.040550490Z   confirmations: [
2025-03-13T20:57:50.040551323Z     {
2025-03-13T20:57:50.040989617Z       owner: '0x537907EFbC060A1b2dfd9F05fDa59DCBc1ca49b4',
2025-03-13T20:57:50.040993826Z       submissionDate: '2025-03-13T11:47:50.326871Z',
2025-03-13T20:57:50.040994784Z       transactionHash: null,
2025-03-13T20:57:50.040995659Z       signature: '0x0940f8fcc2b484cf2b784a82eaa41765a94214a34a5ec0434c7f4aa5a8a5b8b645bfaefcfb59950fad8a7251186dfd44d8f603a024e30eb687688fee6a6c4f691b',
2025-03-13T20:57:50.040996742Z       signatureType: 'EOA'
2025-03-13T20:57:50.040997659Z     }
2025-03-13T20:57:50.040998451Z   ],
2025-03-13T20:57:50.040999284Z   trusted: true,
2025-03-13T20:57:50.041000117Z   signatures: null
2025-03-13T20:57:50.041000951Z }
2025-03-13T20:57:50.671393109Z Validation result: Approved
2025-03-13T20:57:50.688286232Z Validation result: Approved
2025-03-13T20:57:50.714563608Z Validation result: Approved
2025-03-13T21:02:00.768209284Z Validate task: proof of task: QmPiLkpADvk6aBMMZ79HiV72J7t9CWzSEejJoh1rGfFqjV
2025-03-13T21:02:01.229491413Z Validate task: proof of task: QmPiLkpADvk6aBMMZ79HiV72J7t9CWzSEejJoh1rGfFqjV
2025-03-13T21:02:01.249161091Z Validate task: proof of task: QmPiLkpADvk6aBMMZ79HiV72J7t9CWzSEejJoh1rGfFqjV
2025-03-13T21:02:06.449652739Z Transaction data received: {
2025-03-13T21:02:06.449893781Z   safe: '0x80De3dfEF1Ef6cbaBEc9063D1B6AFeab2a73f4f8',
2025-03-13T21:02:06.450006532Z   to: '0x07eA79F68B2B3df564D0A34F8e19D9B1e339814b',
2025-03-13T21:02:06.450017490Z   value: '0',
2025-03-13T21:02:06.450022240Z   data: '0xa415bcad000000000000000000000000036cbd53842c5426634e7929541ec2318f3dcf7e0000000000000000000000000000000000000000000000000000000014dc938000000000000000000000000000000000000000000000000000000000000000020000000000000000000000000000000000000000000000000000000000000000000000000000000000000000eb0d8736cc2c47882f112507cc8a3355d37d2413',
2025-03-13T21:02:06.450027574Z   operation: 0,
2025-03-13T21:02:06.450036490Z   gasToken: '0x0000000000000000000000000000000000000000',
2025-03-13T21:02:06.450041032Z   safeTxGas: '0',
2025-03-13T21:02:06.450044949Z   baseGas: '0',
2025-03-13T21:02:06.450048657Z   gasPrice: '0',
2025-03-13T21:02:06.450052241Z   refundReceiver: '0x0000000000000000000000000000000000000000',
2025-03-13T21:02:06.450055949Z   nonce: '0',
2025-03-13T21:02:06.450059407Z   executionDate: null,
2025-03-13T21:02:06.450062907Z   submissionDate: '2025-03-13T11:47:50.256774Z',
2025-03-13T21:02:06.450066657Z   modified: '2025-03-13T11:47:50.326871Z',
2025-03-13T21:02:06.450070199Z   blockNumber: null,
2025-03-13T21:02:06.450073699Z   transactionHash: null,
2025-03-13T21:02:06.450077282Z   safeTxHash: '0x3c65af5cc6842ed10ef72198712102f621b4c4ca667444ea333990bf79cce328',
2025-03-13T21:02:06.450081074Z   proposer: '0x537907EFbC060A1b2dfd9F05fDa59DCBc1ca49b4',
2025-03-13T21:02:06.450306283Z   proposedByDelegate: null,
2025-03-13T21:02:06.450322450Z   executor: null,
2025-03-13T21:02:06.450325617Z   isExecuted: false,
2025-03-13T21:02:06.450328284Z   isSuccessful: null,
2025-03-13T21:02:06.450330784Z   ethGasPrice: null,
2025-03-13T21:02:06.450333117Z   maxFeePerGas: null,
2025-03-13T21:02:06.450335700Z   maxPriorityFeePerGas: null,
2025-03-13T21:02:06.450338284Z   gasUsed: null,
2025-03-13T21:02:06.450439451Z   fee: null,
2025-03-13T21:02:06.450445867Z   origin: '{"url": "https://apps-portal.safe.global/tx-builder", "name": "Transaction Builder", "note": null}',
2025-03-13T21:02:06.450449451Z   dataDecoded: { method: 'fallback', parameters: [] },
2025-03-13T21:02:06.450452117Z   confirmationsRequired: 1,
2025-03-13T21:02:06.450454617Z   confirmations: [
2025-03-13T21:02:06.450457034Z     {
2025-03-13T21:02:06.450459618Z       owner: '0x537907EFbC060A1b2dfd9F05fDa59DCBc1ca49b4',
2025-03-13T21:02:06.450462284Z       submissionDate: '2025-03-13T11:47:50.326871Z',
2025-03-13T21:02:06.450464826Z       transactionHash: null,
2025-03-13T21:02:06.450467409Z       signature: '0x0940f8fcc2b484cf2b784a82eaa41765a94214a34a5ec0434c7f4aa5a8a5b8b645bfaefcfb59950fad8a7251186dfd44d8f603a024e30eb687688fee6a6c4f691b',
2025-03-13T21:02:06.450470493Z       signatureType: 'EOA'
2025-03-13T21:02:06.450472951Z     }
2025-03-13T21:02:06.450475326Z   ],
2025-03-13T21:02:06.450477743Z   trusted: true,
2025-03-13T21:02:06.450480201Z   signatures: null
2025-03-13T21:02:06.450482659Z }
2025-03-13T21:02:06.466156609Z Transaction data received: {
2025-03-13T21:02:06.466207318Z   safe: '0x80De3dfEF1Ef6cbaBEc9063D1B6AFeab2a73f4f8',
2025-03-13T21:02:06.466210318Z   to: '0x07eA79F68B2B3df564D0A34F8e19D9B1e339814b',
2025-03-13T21:02:06.466212818Z   value: '0',
2025-03-13T21:02:06.466215026Z   data: '0xa415bcad000000000000000000000000036cbd53842c5426634e7929541ec2318f3dcf7e0000000000000000000000000000000000000000000000000000000014dc938000000000000000000000000000000000000000000000000000000000000000020000000000000000000000000000000000000000000000000000000000000000000000000000000000000000eb0d8736cc2c47882f112507cc8a3355d37d2413',
2025-03-13T21:02:06.466218443Z   operation: 0,
2025-03-13T21:02:06.466220526Z   gasToken: '0x0000000000000000000000000000000000000000',
2025-03-13T21:02:06.466222651Z   safeTxGas: '0',
2025-03-13T21:02:06.466224651Z   baseGas: '0',
2025-03-13T21:02:06.466226610Z   gasPrice: '0',
2025-03-13T21:02:06.466228610Z   refundReceiver: '0x0000000000000000000000000000000000000000',
2025-03-13T21:02:06.466230860Z   nonce: '0',
2025-03-13T21:02:06.466232776Z   executionDate: null,
2025-03-13T21:02:06.466254985Z   submissionDate: '2025-03-13T11:47:50.256774Z',
2025-03-13T21:02:06.466257860Z   modified: '2025-03-13T11:47:50.326871Z',
2025-03-13T21:02:06.466259943Z   blockNumber: null,
2025-03-13T21:02:06.466261902Z   transactionHash: null,
2025-03-13T21:02:06.466263985Z   safeTxHash: '0x3c65af5cc6842ed10ef72198712102f621b4c4ca667444ea333990bf79cce328',
2025-03-13T21:02:06.466266152Z   proposer: '0x537907EFbC060A1b2dfd9F05fDa59DCBc1ca49b4',
2025-03-13T21:02:06.466268235Z   proposedByDelegate: null,
2025-03-13T21:02:06.466270235Z   executor: null,
2025-03-13T21:02:06.466272277Z   isExecuted: false,
2025-03-13T21:02:06.466274277Z   isSuccessful: null,
2025-03-13T21:02:06.466276235Z   ethGasPrice: null,
2025-03-13T21:02:06.466278152Z   maxFeePerGas: null,
2025-03-13T21:02:06.466280110Z   maxPriorityFeePerGas: null,
2025-03-13T21:02:06.466283985Z   gasUsed: null,
2025-03-13T21:02:06.466285902Z   fee: null,
2025-03-13T21:02:06.466287902Z   origin: '{"url": "https://apps-portal.safe.global/tx-builder", "name": "Transaction Builder", "note": null}',
2025-03-13T21:02:06.466290610Z   dataDecoded: { method: 'fallback', parameters: [] },
2025-03-13T21:02:06.466292735Z   confirmationsRequired: 1,
2025-03-13T21:02:06.466294777Z   confirmations: [
2025-03-13T21:02:06.466296693Z     {
2025-03-13T21:02:06.466298610Z       owner: '0x537907EFbC060A1b2dfd9F05fDa59DCBc1ca49b4',
2025-03-13T21:02:06.466300735Z       submissionDate: '2025-03-13T11:47:50.326871Z',
2025-03-13T21:02:06.466302777Z       transactionHash: null,
2025-03-13T21:02:06.466304818Z       signature: '0x0940f8fcc2b484cf2b784a82eaa41765a94214a34a5ec0434c7f4aa5a8a5b8b645bfaefcfb59950fad8a7251186dfd44d8f603a024e30eb687688fee6a6c4f691b',
2025-03-13T21:02:06.466307194Z       signatureType: 'EOA'
2025-03-13T21:02:06.466309194Z     }
2025-03-13T21:02:06.466311110Z   ],
2025-03-13T21:02:06.466313027Z   trusted: true,
2025-03-13T21:02:06.466315027Z   signatures: null
2025-03-13T21:02:06.466316944Z }
2025-03-13T21:02:06.673520021Z Transaction data received: {
2025-03-13T21:02:06.673676563Z   safe: '0x80De3dfEF1Ef6cbaBEc9063D1B6AFeab2a73f4f8',
2025-03-13T21:02:06.673687646Z   to: '0x07eA79F68B2B3df564D0A34F8e19D9B1e339814b',
2025-03-13T21:02:06.673692980Z   value: '0',
2025-03-13T21:02:06.673743813Z   data: '0xa415bcad000000000000000000000000036cbd53842c5426634e7929541ec2318f3dcf7e0000000000000000000000000000000000000000000000000000000014dc938000000000000000000000000000000000000000000000000000000000000000020000000000000000000000000000000000000000000000000000000000000000000000000000000000000000eb0d8736cc2c47882f112507cc8a3355d37d2413',
2025-03-13T21:02:06.673761230Z   operation: 0,
2025-03-13T21:02:06.673848772Z   gasToken: '0x0000000000000000000000000000000000000000',
2025-03-13T21:02:06.673858189Z   safeTxGas: '0',
2025-03-13T21:02:06.673862481Z   baseGas: '0',
2025-03-13T21:02:06.673866814Z   gasPrice: '0',
2025-03-13T21:02:06.673871481Z   refundReceiver: '0x0000000000000000000000000000000000000000',
2025-03-13T21:02:06.673876064Z   nonce: '0',
2025-03-13T21:02:06.673880189Z   executionDate: null,
2025-03-13T21:02:06.673884397Z   submissionDate: '2025-03-13T11:47:50.256774Z',
2025-03-13T21:02:06.673888814Z   modified: '2025-03-13T11:47:50.326871Z',
2025-03-13T21:02:06.673893106Z   blockNumber: null,
2025-03-13T21:02:06.673897272Z   transactionHash: null,
2025-03-13T21:02:06.673901689Z   safeTxHash: '0x3c65af5cc6842ed10ef72198712102f621b4c4ca667444ea333990bf79cce328',
2025-03-13T21:02:06.673972981Z   proposer: '0x537907EFbC060A1b2dfd9F05fDa59DCBc1ca49b4',
2025-03-13T21:02:06.673977898Z   proposedByDelegate: null,
2025-03-13T21:02:06.673982231Z   executor: null,
2025-03-13T21:02:06.673986398Z   isExecuted: false,
2025-03-13T21:02:06.673990523Z   isSuccessful: null,
2025-03-13T21:02:06.673994689Z   ethGasPrice: null,
2025-03-13T21:02:06.673998856Z   maxFeePerGas: null,
2025-03-13T21:02:06.674003106Z   maxPriorityFeePerGas: null,
2025-03-13T21:02:06.674007398Z   gasUsed: null,
2025-03-13T21:02:06.674011523Z   fee: null,
2025-03-13T21:02:06.674015731Z   origin: '{"url": "https://apps-portal.safe.global/tx-builder", "name": "Transaction Builder", "note": null}',
2025-03-13T21:02:06.674021648Z   dataDecoded: { method: 'fallback', parameters: [] },
2025-03-13T21:02:06.674026023Z   confirmationsRequired: 1,
2025-03-13T21:02:06.674030231Z   confirmations: [
2025-03-13T21:02:06.674034315Z     {
2025-03-13T21:02:06.674038481Z       owner: '0x537907EFbC060A1b2dfd9F05fDa59DCBc1ca49b4',
2025-03-13T21:02:06.674042981Z       submissionDate: '2025-03-13T11:47:50.326871Z',
2025-03-13T21:02:06.674047273Z       transactionHash: null,
2025-03-13T21:02:06.674051690Z       signature: '0x0940f8fcc2b484cf2b784a82eaa41765a94214a34a5ec0434c7f4aa5a8a5b8b645bfaefcfb59950fad8a7251186dfd44d8f603a024e30eb687688fee6a6c4f691b',
2025-03-13T21:02:06.674056690Z       signatureType: 'EOA'
2025-03-13T21:02:06.674063148Z     }
2025-03-13T21:02:06.674067190Z   ],
2025-03-13T21:02:06.674071273Z   trusted: true,
2025-03-13T21:02:06.674075607Z   signatures: null
2025-03-13T21:02:06.674079732Z }
2025-03-13T21:02:07.182188168Z Validation result: Approved
2025-03-13T21:02:07.191169711Z Validation result: Approved
2025-03-13T21:02:07.384726473Z Validation result: Approved
